:100000000C9434000C943E000C943E000C943E0082
:100010000C943E000C943E000C943E000C943E0068
:100020000C943E000C943E000C943E000C943E0058
:100030000C943E000C943E000C943E000C943E0048
:100040000C943E000C943E000C943E000C943E0038
:100050000C943E000C943E000C943E000C943E0028
:100060000C943E000C943E0011241FBECFEFD8E04C
:10007000DEBFCDBF0E9440000C9460000C940000D5
:100080008CE08093C4001092C500E2ECF0E0808127
:1000900086608083E1ECF0E08081886180838091DC
:1000A000C00085FFFCCF84E58093C6002FE38DE080
:1000B00093E0215080409040E1F700C00000EFCF76
:0400C000F894FFCFE2
:00000001FF
