:100000000C9434000C9468000C943E000C943E0058
:100010000C943E000C943E000C943E000C943E0068
:100020000C943E000C943E000C943E000C943E0058
:100030000C943E000C943E000C943E000C943E0048
:100040000C943E000C943E000C943E000C943E0038
:100050000C943E000C943E000C943E000C943E0028
:100060000C943E000C943E0011241FBECFEFD8E04C
:10007000DEBFCDBF0E9440000C947A000C940000BB
:1000800084B1816084B984B1846084B9E9E6F0E028
:100090008081826080838DB381608DBB789485B1CF
:1000A000816085B92FE78AE196E021508040904039
:1000B000E1F700C0000085B18E7F85B92FE78AE1A6
:1000C00096E0215080409040E1F700C00000E7CF6B
:1000D0001F920F920FB60F9211248F939F9395B199
:1000E00084E0892785B99F918F910F900FBE0F9063
:0800F0001F901895F894FFCF52
:00000001FF
