:100000000C9434000C943E000C943E000C943E0082
:100010000C943E000C943E000C943E000C943E0068
:100020000C943E000C943E000C943E000C943E0058
:100030000C943E000C943E000C943E000C943E0048
:100040000C943E000C943E000C943E000C943E0038
:100050000C943E000C943E000C943E000C943E0028
:100060000C943E000C943E0011241FBECFEFD8E04C
:10007000DEBFCDBF0E9440000C946B000C940000CA
:1000800084B1816084B984B1846084B98AB18B7F82
:100090008AB94A9B04C085B18B7F85B903C085B1FD
:1000A000846085B985B1816085B92FE78AE196E0E2
:1000B000215080409040E1F700C0000085B18E7F64
:1000C00085B92FE78AE196E0215080409040E1F722
:0A00D00000C00000DECFF894FFCF5F
:00000001FF
