:100000000C9434000C943E000C943E000C943E0082
:100010000C943E000C943E000C943E000C943E0068
:100020000C943E000C943E000C943E000C943E0058
:100030000C943E000C943E000C943E000C943E0048
:100040000C943E000C943E000C943E000C943E0038
:100050000C943E000C943E000C943E000C943E0028
:100060000C943E000C943E0011241FBECFEFD8E04C
:10007000DEBFCDBF0E9440000C9458000C940000DD
:1000800084B1816084B985B5816085BD85B58460A2
:1000900085BD16BC80E090E026B52E3F08F00196A5
:1000A00084309105C9F795B181E0892785B9F2CFF0
:0400B000F894FFCFF2
:00000001FF
