:100000000C9434000C9446000C9446000C9446006A
:100010000C9446000C9446000C9446000C94460048
:100020000C9446000C9446000C9446000C94460038
:100030000C9446000C9446000C9446000C94460028
:100040000C9467000C9446000C9446000C944600F7
:100050000C9446000C9446000C9446000C94460008
:100060000C9446000C94460011241FBECFEFD8E03C
:10007000DEBFCDBF21E0A0E0B1E001C01D92A23003
:10008000B207E1F70E9448000C947E000C94000037
:1000900084B1816084B985B5816085BD85B5846092
:1000A00085BD16BCEEE6F0E08081816080837894A7
:1000B00080910001909101010497D1F795B181E001
:1000C000892785B91092010110920001F1CF1F928A
:1000D0000F920FB60F9211248F939F93809100017E
:1000E00090910101019690930101809300019F91ED
:1000F0008F910F900FBE0F901F901895F894FFCF1F
:00000001FF
